:100000000C942A000C943F000C943F000C943F0089
:100010000C943F000C943F000C943F000C943F0064
:100020000C943F000C943F000C943F000C943F0054
:100030000C943F000C943F000C943F000C943F0044
:100040000C943F000C943F000C943F000C943F0034
:100050000C943F0011241FBECFE5D8E0DEBFCDBF1A
:1000600010E0A0E6B0E0E0EBFAE202C005900D92ED
:10007000A638B107D9F70E94D1130C9456150C94E9
:100080000000EF92FF920F931F937B018C0120E001
:1000900030E040E05FE40E94ED0388238CF0C8016B
:1000A000B70120E030E040E05FE40E94B9010E9427
:1000B0004D049B01AC01205030404040504806C0E8
:1000C000C801B7010E944D049B01AC01B901CA01EE
:1000D0001F910F91FF90EF900895A0E0B0E0E3E74B
:1000E000F0E00C941F15DC012B01FA019C91923079
:1000F00008F439C1EB018881823008F433C19430AF
:1001000069F4843009F02FC111969C91119789816F
:10011000981709F428C1ACE7B0E025C1843009F490
:1001200021C18230A9F4923009F01DC19A01AD01BC
:1001300088E0EA010990AE01E90109929E0181502F
:10014000C1F7E201898111969C918923818308C1BD
:10015000923009F407C112962D903C901397EB0151
:100160008A819B811496AD90BD90CD90DC901797BD
:10017000EC80FD800E811F819101281B390BB90194
:1001800037FF04C066277727621B730B6032710547
:100190000CF061C0121613066CF537014801062EEB
:1001A00004C096948794779467940A94D2F721E0D8
:1001B00030E040E050E004C0220F331F441F551FC1
:1001C0006A95D2F721503040404050402E213F21C7
:1001D00040235123211531054105510521F021E02E
:1001E00030E040E050E079018A01E628F72808294C
:1001F00019293CC0232BD1F1260E371E35014601AB
:10020000062E04C096948794779467940A94D2F744
:1002100021E030E040E050E004C0220F331F441FD3
:10022000551F6A95D2F721503040404050402A2156
:100230003B214C215D21211531054105510521F05E
:1002400021E030E040E050E059016A01A628B728DB
:10025000C828D9280BC0821593052CF01C01AA24AC
:10026000BB24650103C0EE24FF24870111969C91F5
:10027000D20111968C91981709F445C0992339F051
:10028000A80197012A193B094C095D0906C0A6017E
:1002900095012E193F09400B510B57FD08C01182E3
:1002A0003382228224833583468357831DC081E0B5
:1002B00081833382228288279927DC01821B930B5A
:1002C000A40BB50B84839583A683B7830DC0220F3F
:1002D000331F441F551F24833583468357838281F0
:1002E000938101979383828324813581468157814D
:1002F000DA01C9010197A109B1098F5F9F4FAF4F83
:10030000BF4328F30BC0918333822282EA0CFB1C8B
:100310000C1D1D1DE482F5820683178383E0808314
:10032000248135814681578157FF1AC0C901AA2708
:1003300097FDA095BA2F81709070A070B0705695FF
:10034000479537952795822B932BA42BB52B848328
:100350009583A683B7838281938101969383828359
:10036000DF0101C0D201CD01CDB7DEB7E2E10C94CF
:100370003B15A0E2B0E0EFEBF1E00C942B156983A4
:100380007A838B839C832D833E834F835887E9E058
:10039000EE2EF12CEC0EFD1ECE010196B7010E944F
:1003A00076058E010F5E1F4FCE010596B8010E94A3
:1003B00076058A8991E089278A8BC701B801AE0149
:1003C000475E5F4F0E946D000E94A104A096E6E088
:1003D0000C944715A0E2B0E0E0EFF1E00C942B158F
:1003E00069837A838B839C832D833E834F835887D5
:1003F000F9E0EF2EF12CEC0EFD1ECE010196B701B7
:100400000E9476058E010F5E1F4FCE010596B80142
:100410000E947605C701B801AE01475E5F4F0E949A
:100420006D000E94A104A096E6E00C944715A0E29E
:10043000B0E0EDE1F2E00C941F1569837A838B83C1
:100440009C832D833E834F835887CE010196BE0146
:10045000675F7F4F0E947605CE010596BE016F5EF5
:100460007F4F0E9476059985923088F08989823085
:10047000C8F0943019F4823051F404C0843029F467
:10048000923081F48CE790E0C6C0923049F420E0CD
:100490009A858A89981321E02A87CE010996BBC0E4
:1004A000823049F420E09A858A89981321E02A8BCA
:1004B000CE014196B0C02D843E844F8458886D880B
:1004C0007E888F88988CEE24FF248701AA24BB2481
:1004D000650140E050E060E070E0E0E0F0E0C10184
:1004E00081709070892BE9F0E60CF71C081D191D2E
:1004F0009A01AB012A0D3B1D4C1D5D1D80E090E073
:10050000A0E0B0E0E614F7040805190520F481E046
:1005100090E0A0E0B0E0BA01A901480F591F6A1F9E
:100520007B1FAA0CBB1CCC1CDD1C97FE08C081E005
:1005300090E0A0E0B0E0A82AB92ACA2ADB2A3196C6
:10054000E032F10549F0660C771C881C991C569422
:10055000479437942794C3CFFA85EA892B893C893D
:100560008B859C85280F391F2E5F3F4F17C0CA010E
:1005700081709070892B61F016950795F794E79438
:1005800080E090E0A0E0B0E8E82AF92A0A2B1B2BD3
:1005900076956795579547952F5F3F4F77FDE7CF46
:1005A0000CC0440F551F661F771F17FD4160EE0CEE
:1005B000FF1C001F111F21503040403090E05907B0
:1005C00090E0690790E4790760F32B8F3C8FDB01A3
:1005D000CA018F779070A070B07080349105A1052A
:1005E000B10561F447FD0AC0E114F10401051105EC
:1005F00029F0405C5F4F6F4F7F4F40781A8EFE1797
:1006000011F081E08A8F4D8F5E8F6F8F78A383E02A
:10061000898FCE0149960E94A104A096E2E10C9434
:100620003B15A8E1B0E0E7E1F3E00C9427156983FE
:100630007A838B839C832D833E834F835887B9E0D5
:10064000EB2EF12CEC0EFD1ECE010196B7010E949F
:1006500076058E010F5E1F4FCE010596B8010E94F0
:1006600076052985223008F47EC03989323010F4AD
:10067000B8017CC08A859A8989278A87243011F03D
:10068000223031F4231709F06EC06CE770E06EC0C1
:10069000343039F41D861E861F86188A1C861B86F8
:1006A00004C0323021F484E08987B7015FC02B8514
:1006B0003C858B899C89281B390B3C872B87ED84D3
:1006C000FE840F851889AD88BE88CF88D88CEA143F
:1006D000FB040C051D0540F4EE0CFF1C001F111F50
:1006E000215030403C872B8720E030E040E050E054
:1006F00080E090E0A0E0B0E460E070E0EA14FB0489
:100700000C051D0540F0282B392B4A2B5B2BEA18D2
:10071000FB080C091D09B695A79597958795EE0CD2
:10072000FF1C001F111F6F5F7F4F6F31710531F785
:10073000DA01C9018F779070A070B0708034910594
:10074000A105B10561F427FD0AC0E114F10401051A
:10075000110529F0205C3F4F4F4F5F4F20782D87C8
:100760003E874F87588BBE01675F7F4FCB010E944A
:10077000A1046896EAE00C944315A8E1B0E0E3EC2C
:10078000F3E00C942B1569837A838B839C832D83F0
:100790003E834F83588789E0E82EF12CEC0EFD1E36
:1007A000CE010196B7010E9476058E010F5E1F4FA4
:1007B000CE010596B8010E9476058985823040F009
:1007C0008989823028F0C701B8010E94EE0501C076
:1007D0008FEF6896E6E00C944715A8E1B0E0E3EFF0
:1007E000F3E00C942B1569837A838B839C832D8390
:1007F0003E834F83588789E0E82EF12CEC0EFD1ED6
:10080000CE010196B7010E9476058E010F5E1F4F43
:10081000CE010596B8010E9476058985823040F0A8
:100820008989823028F0C701B8010E94EE0501C015
:100830008FEF6896E6E00C944715A8E1B0E0E3E29C
:10084000F4E00C942B1569837A838B839C832D832E
:100850003E834F83588789E0E82EF12CEC0EFD1E75
:10086000CE010196B7010E9476058E010F5E1F4FE3
:10087000CE010596B8010E9476058985823040F048
:100880008989823028F0C701B8010E94EE0501C0B5
:1008900081E06896E6E00C944715ACE0B0E0E3E553
:1008A000F4E00C942F1569837A838B839C83CE01AB
:1008B0000196BE016B5F7F4F0E9476058D8182306D
:1008C00061F1823050F1843021F48E81882351F11E
:1008D0002EC02F81388537FD20C06E812F31310524
:1008E0001CF06623F9F023C08EE190E0821B930B8D
:1008F00029853A854B855C8504C056954795379583
:1009000027958A95D2F76623B1F05095409530959A
:1009100021953F4F4F4F5F4F0EC020E030E040E049
:1009200050E009C02FEF3FEF4FEF5FE704C020E03A
:1009300030E040E050E8B901CA012C96E2E00C94A6
:100940004B15DF92EF92FF920F931F93FC01E4800F
:10095000F58006811781D1808081823048F480E063
:1009600090E0A0E1B0E0E82AF92A0A2B1B2BA5C0F1
:10097000843009F49FC0823021F4EE24FF248701E3
:1009800005C0E114F1040105110519F4E0E0F0E0FF
:1009900096C0628173819FEF623879070CF05BC06B
:1009A00022E83FEF261B370B2A3131052CF020E0DF
:1009B00030E040E050E02AC0B801A701022E04C098
:1009C00076956795579547950A94D2F781E090E020
:1009D000A0E0B0E004C0880F991FAA1FBB1F2A9592
:1009E000D2F70197A109B1098E219F21A023B1233C
:1009F0000097A105B10521F081E090E0A0E0B0E012
:100A00009A01AB01282B392B4A2B5B2BDA01C90148
:100A10008F779070A070B07080349105A105B105FA
:100A200039F427FF09C0205C3F4F4F4F5F4F04C090
:100A3000215C3F4F4F4F5F4FE0E0F0E02030A0E0FF
:100A40003A07A0E04A07A0E45A0710F0E1E0F0E01E
:100A500079018A0127C06038710564F5FB01E1580E
:100A6000FF4FD801C7018F779070A070B0708034AD
:100A70009105A105B10539F4E7FE0DC080E490E0D1
:100A8000A0E0B0E004C08FE390E0A0E0B0E0E80EAA
:100A9000F91E0A1F1B1F17FF05C016950795F7942F
:100AA000E794319687E016950795F794E7948A9531
:100AB000D1F705C0EE24FF248701EFEFF0E06E2FA1
:100AC000679566276795902F9F77D794DD24D794F5
:100AD0008E2F8695492F462B582F5D29B701CA01C5
:100AE0001F910F91FF90EF90DF900895FC01DB01C3
:100AF000408151812281622F6F7770E0221F22276F
:100B0000221F9381892F880F822B282F30E0991F75
:100B10009927991F11969C93119721153105A9F5D5
:100B2000411551056105710511F482E037C082E875
:100B30009FEF13969C938E9312979A01AB0167E0F7
:100B4000220F331F441F551F6A95D1F783E08C9302
:100B50000DC0220F331F441F551F12968D919C917B
:100B60001397019713969C938E931297203080E0F1
:100B7000380780E0480780E4580758F314962D930F
:100B80003D934D935C93179708952F3F310579F46A
:100B9000411551056105710519F484E08C930895A0
:100BA00064FF03C081E08C9312C01C9210C02F57C9
:100BB000304013963C932E93129783E08C9387E0FA
:100BC000440F551F661F771F8A95D1F770641496DE
:100BD0004D935D936D937C93179708951F93DC015C
:100BE000FB019C91923008F447C08081823008F468
:100BF00043C0943051F411961C91843099F5818151
:100C0000682F70E0611B71093FC0843021F0923081
:100C100031F48230B9F18181882389F12DC0119698
:100C20001C9111978230F1F081811817D9F4129636
:100C30002D913C911397828193818217930794F0B1
:100C400028173907BCF014968D919D910D90BC9199
:100C5000A02D2481358146815781281739074A07FD
:100C60005B0718F4112341F00AC082179307A40709
:100C7000B50740F4112319F061E070E005C06FEF93
:100C80007FEF02C060E070E0CB011F910895DF9319
:100C9000CF93CDB7DEB781E065E041E00E94F20678
:100CA00081E064E041E00E94F20681E067E041E01B
:100CB0000E94F20681E066E040E00E94F20681E0D8
:100CC00064E040E00E94D507EDE2F0E083E5808338
:100CD000EEE2F0E01082CF91DF910895DF93CF93A1
:100CE000CDB7DEB781E065E040E00E94F20681E02A
:100CF00064E040E00E94F20681E067E040E00E948C
:100D0000F20681E066E041E00E94F206EDE2F0E0EA
:100D100083E48083EEE2F0E01082CF91DF910895CA
:100D2000DF93CF9300D0CDB7DEB78A83EFE2F0E058
:100D30008A818083EEE2F0E080818823DCF7EFE2B5
:100D4000F0E0808189830F900F90CF91DF9108951B
:100D5000DF93CF930F92CDB7DEB78FEF8983EFE2AA
:100D6000F0E089818083EEE2F0E080818823DCF787
:100D7000EFE2F0E080810F90CF91DF910895DF9353
:100D8000CF930F92CDB7DEB78983EFE2F0E0898190
:100D90008083EEE2F0E080818823DCF7EFE2F0E090
:100DA00080810F90CF91DF910895DF93CF93CDB7DE
:100DB000DEB7EEE2F0E080818823DCF7EFE2F0E0DE
:100DC0008081CF91DF910895DF93CF930F92CDB7BC
:100DD000DEB78983EFE2F0E0898180830F90CF91C5
:100DE000DF910895DF93CF9300D000D00F92CDB75D
:100DF000DEB789836A834B838981282F30E03D8366
:100E00002C838C819D818130910509F443C02C8114
:100E10003D81223031052CF48C819D81009771F049
:100E2000BCC02C813D812230310509F45FC08C812A
:100E30009D818330910509F485C0AFC08B818823E3
:100E4000A9F4AAE3B0E0EAE3F0E08081482F8A81C8
:100E5000282F30E081E090E0022E02C0880F991F19
:100E60000A94E2F7809584238C9397C0AAE3B0E0BC
:100E7000EAE3F0E08081482F8A81282F30E081E08A
:100E800090E0022E02C0880F991F0A94E2F7842B8B
:100E90008C9383C08B818823A9F4A7E3B0E0E7E3B8
:100EA000F0E08081482F8A81282F30E081E090E0B7
:100EB000022E02C0880F991F0A94E2F780958423BE
:100EC0008C936BC0A7E3B0E0E7E3F0E08081482FAC
:100ED0008A81282F30E081E090E0022E02C0880F46
:100EE000991F0A94E2F7842B8C9357C08B81882337
:100EF000A9F4A4E3B0E0E4E3F0E08081482F8A8124
:100F0000282F30E081E090E0022E02C0880F991F68
:100F10000A94E2F7809584238C933FC0A4E3B0E069
:100F2000E4E3F0E08081482F8A81282F30E081E0DF
:100F300090E0022E02C0880F991F0A94E2F7842BDA
:100F40008C932BC08B818823A9F4A1E3B0E0E1E36B
:100F5000F0E08081482F8A81282F30E081E090E006
:100F6000022E02C0880F991F0A94E2F7809584230D
:100F70008C9313C0A1E3B0E0E1E3F0E08081482F5F
:100F80008A81282F30E081E090E0022E02C0880F95
:100F9000991F0A94E2F7842B8C930F900F900F9077
:100FA0000F900F90CF91DF910895DF93CF9300D0F2
:100FB00000D00F92CDB7DEB789836A834B838981D6
:100FC000282F30E03D832C838C819D8181309105D9
:100FD00009F443C02C813D81223031052CF48C81F1
:100FE0009D81009771F0BCC02C813D81223031057C
:100FF00009F45FC08C819D818330910509F485C01F
:10100000AFC08B818823A9F4ABE3B0E0EBE3F0E061
:101010008081482F8A81282F30E081E090E0022EE5
:1010200002C0880F991F0A94E2F7809584238C935D
:1010300097C0ABE3B0E0EBE3F0E08081482F8A811A
:10104000282F30E081E090E0022E02C0880F991F27
:101050000A94E2F7842B8C9383C08B818823A9F4B4
:10106000A8E3B0E0E8E3F0E08081482F8A81282FF0
:1010700030E081E090E0022E02C0880F991F0A94B0
:10108000E2F7809584238C936BC0A8E3B0E0E8E39B
:10109000F0E08081482F8A81282F30E081E090E0C5
:1010A000022E02C0880F991F0A94E2F7842B8C93BA
:1010B00057C08B818823A9F4A5E3B0E0E5E3F0E015
:1010C0008081482F8A81282F30E081E090E0022E35
:1010D00002C0880F991F0A94E2F7809584238C93AD
:1010E0003FC0A5E3B0E0E5E3F0E08081482F8A81CE
:1010F000282F30E081E090E0022E02C0880F991F77
:101100000A94E2F7842B8C932BC08B818823A9F45B
:10111000A2E3B0E0E2E3F0E08081482F8A81282F4B
:1011200030E081E090E0022E02C0880F991F0A94FF
:10113000E2F7809584238C9313C0A2E3B0E0E2E34E
:10114000F0E08081482F8A81282F30E081E090E014
:10115000022E02C0880F991F0A94E2F7842B8C9309
:101160000F900F900F900F900F90CF91DF910895F7
:10117000DF93CF9300D000D0CDB7DEB789836A83E9
:101180008981282F30E03C832B838B819C818130A7
:10119000910549F12B813C81223031052CF48B8162
:1011A0009C81009761F05AC02B813C81223031052F
:1011B00071F18B819C8183309105E9F14FC0ABE3E4
:1011C000B0E0EBE3F0E08081482F8A81282F30E007
:1011D00081E090E0022E02C0880F991F0A94E2F786
:1011E00084278C933BC0A8E3B0E0E8E3F0E0808183
:1011F000482F8A81282F30E081E090E0022E02C043
:10120000880F991F0A94E2F784278C9327C0A5E3DF
:10121000B0E0E5E3F0E08081482F8A81282F30E0BC
:1012200081E090E0022E02C0880F991F0A94E2F735
:1012300084278C9313C0A2E3B0E0E2E3F0E0808166
:10124000482F8A81282F30E081E090E0022E02C0F2
:10125000880F991F0A94E2F784278C930F900F90C0
:101260000F900F90CF91DF910895DF93CF9300D02F
:1012700000D00F92CDB7DEB78A836B838A81282F87
:1012800030E03D832C834C815D814130510541F13B
:101290008C819D818230910534F42C813D81211512
:1012A000310561F052C04C815D814230510551F1F0
:1012B0008C819D8183309105B9F147C0E9E3F0E06D
:1012C0008081282F30E08B81882F90E0A90102C017
:1012D000559547958A95E2F7CA018170898335C093
:1012E000E6E3F0E08081282F30E08B81882F90E0CA
:1012F000A90102C0559547958A95E2F7CA01817008
:10130000898323C0E3E3F0E08081282F30E08B81E4
:10131000882F90E0A90102C0559547958A95E2F77C
:10132000CA018170898311C0E0E3F0E08081282F39
:1013300030E08B81882F90E0A90102C05595479538
:101340008A95E2F7CA018170898389810F900F9095
:101350000F900F900F90CF91DF910895DF93CF936F
:1013600000D000D00F92CDB7DEB789836A834B835C
:101370008981282F30E03D832C838C819D818130B1
:10138000910529F12C813D81223031052CF48C818D
:101390009D81009761F04AC02C813D81223031054A
:1013A00031F18C819D818330910589F13FC0ABE3A0
:1013B000B0E0EBE3F0E08081982F8B818095292FBE
:1013C00028239A818B818923822B8C932FC0A8E3B9
:1013D000B0E0E8E3F0E08081982F8B818095292FA1
:1013E00028239A818B818923822B8C931FC0A5E3AC
:1013F000B0E0E5E3F0E08081982F8B818095292F84
:1014000028239A818B818923822B8C930FC0A2E39E
:10141000B0E0E2E3F0E08081982F8B818095292F66
:1014200028239A818B818923822B8C930F900F9094
:101430000F900F900F90CF91DF910895DF93CF938E
:1014400000D000D00F92CDB7DEB789836A834B837B
:101450008981282F30E03D832C838C819D818130D0
:10146000910569F12C813D81223031052CF48C816C
:101470009D81009769F067C02C813D812230310544
:10148000A9F18C819D818330910509F446C05BC030
:101490008B81882359F4AAE3B0E0EAE3F0E080818D
:1014A000982F8A81809589238C934DC0AAE3B0E060
:1014B000EAE3F0E090818A81892B8C9344C08B8190
:1014C000882359F4A7E3B0E0E7E3F0E08081982FA8
:1014D0008A81809589238C9336C0A7E3B0E0E7E347
:1014E000F0E090818A81892B8C932DC08B81882399
:1014F00059F4A4E3B0E0E4E3F0E08081982F8A811E
:10150000809589238C931FC0A4E3B0E0E4E3F0E06E
:1015100090818A81892B8C9316C08B81882359F402
:10152000A1E3B0E0E1E3F0E08081982F8A8180952B
:1015300089238C9308C0A1E3B0E0E1E3F0E090815F
:101540008A81892B8C930F900F900F900F900F90A2
:10155000CF91DF910895DF93CF93CDB7DEB780E0D1
:1015600062E041E00E94F206CF91DF910895DF939F
:10157000CF93CDB7DEB780E062E041E00E94D507AF
:10158000CF91DF910895DF93CF93CDB7DEB780E0A1
:1015900062E040E00E94D507CF91DF910895DF938C
:1015A000CF93CDB7DEB780E062E00E94B808CF915C
:1015B000DF910895DF93CF93CDB7DEB782E062E08D
:1015C00041E00E94F20682E067E041E00E94F206FC
:1015D00083E063E041E00E94F206CF91DF9108953D
:1015E000DF93CF9300D00F92CDB7DEB78983898187
:1015F000282F30E03B832A838A819B8181309105AB
:1016000079F02A813B812230310581F08A819B81EA
:10161000009789F482E062E041E00E94D5070BC0A8
:1016200082E067E041E00E94D50705C083E063E007
:1016300041E00E94D5070F900F900F90CF91DF915E
:101640000895DF93CF9300D00F92CDB7DEB7898393
:101650008981282F30E03B832A838A819B818130D6
:10166000910579F02A813B812230310581F08A8110
:101670009B81009789F482E062E040E00E94D507F8
:101680000BC082E067E040E00E94D50705C083E020
:1016900063E040E00E94D5070F900F900F90CF912C
:1016A000DF910895DF93CF9300D00F92CDB7DEB7CF
:1016B00089838981282F30E03B832A838A819B811B
:1016C0008130910571F02A813B812230310571F022
:1016D0008A819B81009771F482E062E00E94B808E1
:1016E00009C082E067E00E94B80804C083E063E0BC
:1016F0000E94B8080F900F900F90CF91DF9108953E
:101700000F931F93DF93CF93CDB7DEB7CD54D04067
:101710000FB6F894DEBF0FBECDBFFE01E35BFF4FF7
:101720008083A8E3B0E0E8E3F0E080818D7F8C93D4
:10173000ABE3B0E0FE01E35BFF4F8081807F8C93E1
:10174000A8E3B0E0E8E3F0E0808188608C93FE01DC
:10175000E75BFF4F80E090E0A0E8BFE380839183E8
:10176000A283B3838E010B5B1F4FFE01E75BFF4F2C
:10177000608171818281938120E030E04AE755E405
:101780000E941702DC01CB01F80180839183A283C0
:10179000B383FE01EB5BFF4F608171818281938196
:1017A00020E030E040E85FE30E941D04882344F419
:1017B000FE01ED5BFF4F81E090E09183808364C088
:1017C000FE01EB5BFF4F608171818281938120E09C
:1017D0003FEF4FE757E40E94BD0318160CF043C0DB
:1017E000FE01E75BFF4F608171818281938120E080
:1017F00030E040E251E40E941702DC01CB018E018F
:101800000D5B1F4FBC01CD010E944100DC01CB01EB
:10181000F801918380831FC0FE01EF5BFF4F80E9D9
:1018200091E091838083FE01EF5BFF4F8081918186
:101830000197F1F7FE01EF5BFF4F91838083DE019B
:10184000AD5BBF4FFE01ED5BFF4F80819181019742
:1018500011969C938E93FE01ED5BFF4F80819181E9
:101860000097D1F624C08E010D5B1F4FFE01EB5B8C
:10187000FF4F60817181828193810E944100DC0170
:10188000CB01F80191838083FE01ED5BFF4F8081E6
:101890009181FE01FF9691838083FE01FF968081F6
:1018A00091810197F1F7FE01FF9691838083A8E370
:1018B000B0E0E8E3F0E08081877F8C9380E090E007
:1018C000A8ECB2E48BAF9CAFADAFBEAF6BAD7CAD5F
:1018D0008DAD9EAD2BEA3AEA4AEA50E40E94170227
:1018E000DC01CB018FAB98AFA9AFBAAF6FA978ADD0
:1018F00089AD9AAD20E030E040E85FE30E941D042E
:1019000088231CF481E08EAB91C06FA978AD89ADBE
:101910009AAD20E030E04FE753E40E94BD03181673
:101920000CF07BC06BAD7CAD8DAD9EAD20E030E0AA
:101930004AE754E40E941103DC01CB018AAB9BAB64
:10194000ACABBDAB6AA97BA98CA99DA920E030E016
:101950004AE755E40E941702DC01CB018EA79FA73E
:10196000A8ABB9AB6EA57FA588A999A920E030E006
:1019700040E85FE30E941D0488232CF481E090E09E
:101980009DA78CA73FC06EA57FA588A999A920E037
:101990003FEF4FE757E40E94BD0318164CF56AA9C4
:1019A0007BA98CA99DA920E030E040E251E40E948F
:1019B0001702DC01CB01BC01CD010E944100DC011A
:1019C000CB019DA78CA70FC080E991E09BA78AA7B8
:1019D0008AA59BA50197F1F79BA78AA78CA59DA532
:1019E00001979DA78CA78CA59DA5009769F724C09A
:1019F0006EA57FA588A999A90E944100DC01CB01B1
:101A00009DA78CA78CA59DA599A788A788A599A512
:101A10000197F1F799A788A70FC06FA978AD89AD95
:101A20009AAD0E944100DC01CB018EAB8EA98FA341
:101A30008FA18A95F1F78FA3ABE3B0E0FE01E35BE2
:101A4000FF4F80818295807F8C93A8E3B0E0E8E32C
:101A5000F0E0808188608C9380E090E0A0E8BFE3B4
:101A60008BA39CA3ADA3BEA36BA17CA18DA19EA1C2
:101A700020E030E04AE755E40E941702DC01CB0188
:101A80008F8F98A3A9A3BAA36F8D78A189A19AA1DA
:101A900020E030E040E85FE30E941D0488232CF43E
:101AA00081E090E09E8F8D8F3FC06F8D78A189A1DE
:101AB0009AA120E03FEF4FE757E40E94BD031816BC
:101AC0004CF56BA17CA18DA19EA120E030E040E20D
:101AD00051E40E941702DC01CB01BC01CD010E9440
:101AE0004100DC01CB019E8F8D8F0FC080E991E01A
:101AF0009C8F8B8F8B8D9C8D0197F1F79C8F8B8F9B
:101B00008D8D9E8D01979E8F8D8F8D8D9E8D0097D3
:101B100069F714C06F8D78A189A19AA10E94410034
:101B2000DC01CB019E8F8D8F8D8D9E8D9A8F898F3D
:101B3000898D9A8D0197F1F79A8F898FA8E3B0E08C
:101B4000E8E3F0E08081877F8C9380E090E0A8EC70
:101B5000B2E48D8B9E8BAF8BB88F6D897E898F8918
:101B6000988D2BEA3AEA4AEA50E40E941702DC0117
:101B7000CB01898B9A8BAB8BBC8B69897A898B89DA
:101B80009C8920E030E040E85FE30E941D04882348
:101B90001CF481E0888B91C069897A898B899C8942
:101BA00020E030E04FE753E40E94BD0318160CF02C
:101BB0007BC06D897E898F89988D20E030E04AE76F
:101BC00054E40E941103DC01CB018C879D87AE8712
:101BD000BF876C857D858E859F8520E030E04AE754
:101BE00055E40E941702DC01CB0188879987AA87F8
:101BF000BB87688579858A859B8520E030E040E851
:101C00005FE30E941D0488232CF481E090E09F8311
:101C10008E833FC0688579858A859B8520E03FEF6C
:101C20004FE757E40E94BD0318164CF56C857D857F
:101C30008E859F8520E030E040E251E40E9417024B
:101C4000DC01CB01BC01CD010E944100DC01CB01D4
:101C50009F838E830FC080E991E09D838C838C816C
:101C60009D810197F1F79D838C838E819F810197E0
:101C70009F838E838E819F81009769F724C068853A
:101C800079858A859B850E944100DC01CB019F8379
:101C90008E838E819F819B838A838A819B8101971A
:101CA000F1F79B838A830FC069897A898B899C8924
:101CB0000E944100DC01CB01888B8889898389815E
:101CC0008A95F1F78983C35BDF4F0FB6F894DEBFC7
:101CD0000FBECDBFCF91DF911F910F910895DF937C
:101CE000CF93CDB7DEB768970FB6F894DEBF0FBEBF
:101CF000CDBFEAE3F0E08FEF8083E7E3F0E08FEF22
:101D00008083EBE3F0E01082A8E3B0E0E8E3F0E0EA
:101D10008081877F8C9383E30E94800B82E30E9403
:101D2000800B88E20E94800B8EE00E94800B81E095
:101D30000E94800B80E090E0AAEFB4E48D8B9E8B34
:101D4000AF8BB88F6D897E898F89988D2BEA3AEA9F
:101D50004AEA50E40E941702DC01CB01898B9A8B7E
:101D6000AB8BBC8B69897A898B899C8920E030E0B8
:101D700040E85FE30E941D0488231CF481E0888B07
:101D800091C069897A898B899C8920E030E04FE78E
:101D900053E40E94BD0318160CF07BC06D897E8948
:101DA0008F89988D20E030E04AE754E40E941103C7
:101DB000DC01CB018C879D87AE87BF876C857D85D5
:101DC0008E859F8520E030E04AE755E40E941702A7
:101DD000DC01CB0188879987AA87BB8768857985CD
:101DE0008A859B8520E030E040E85FE30E941D0487
:101DF00088232CF481E090E09F838E833FC0688528
:101E000079858A859B8520E03FEF4FE757E40E9464
:101E1000BD0318164CF56C857D858E859F8520E069
:101E200030E040E251E40E941702DC01CB01BC012A
:101E3000CD010E944100DC01CB019F838E830FC046
:101E400080E991E09D838C838C819D810197F1F7DE
:101E50009D838C838E819F8101979F838E838E814A
:101E60009F81009769F724C0688579858A859B855D
:101E70000E944100DC01CB019F838E838E819F8174
:101E80009B838A838A819B810197F1F79B838A8355
:101E90000FC069897A898B899C890E944100DC0185
:101EA000CB01888B8889898389818A95F1F7898319
:101EB00086E00E94800B68960FB6F894DEBF0FBED6
:101EC000CDBFCF91DF9108950F931F93DF93CF93F1
:101ED000CDB7DEB7C156D0400FB6F894DEBF0FBE07
:101EE000CDBFFE01EF59FF4F8083A8E3B0E0E8E3E8
:101EF000F0E0808182608C93ABE3B0E0FE01EF59AB
:101F0000FF4F8081807F8C93A8E3B0E0E8E3F0E0AE
:101F1000808182608C93A8E3B0E0E8E3F0E0808108
:101F200088608C93FE01E35AFF4F80E090E0A0E8C8
:101F3000BFE380839183A283B3838E01075A1F4F2F
:101F4000FE01E35AFF4F60817181828193812BEA08
:101F50003AEA4AEA50E40E941702DC01CB01F80198
:101F600080839183A283B383FE01E75AFF4F608190
:101F700071818281938120E030E040E85FE30E943C
:101F80001D04882334F4FE01E85AFF4F81E080836A
:101F9000E0C0FE01E75AFF4F608171818281938129
:101FA00020E030E04FE753E40E94BD0318160CF028
:101FB000C0C0FE01E35AFF4F60817181828193812D
:101FC00020E030E04AE754E40E941103DC01CB0139
:101FD000FE01EC5AFF4F80839183A283B3838E016D
:101FE000005B1F4FFE01EC5AFF4F608171818281BF
:101FF000938120E030E04AE755E40E941702DC01BB
:10200000CB01F80180839183A283B383FE01E05B5F
:10201000FF4F608171818281938120E030E040E850
:102020005FE30E941D04882344F4FE01E25BFF4F3E
:1020300081E090E09183808364C0FE01E05BFF4F0C
:10204000608171818281938120E03FEF4FE757E407
:102050000E94BD0318160CF043C0FE01EC5AFF4F5E
:10206000608171818281938120E030E040E251E41F
:102070000E941702DC01CB018E01025B1F4FBC01E5
:10208000CD010E944100DC01CB01F80191838083E6
:102090001FC0FE01E45BFF4F80E991E091838083E4
:1020A000FE01E45BFF4F808191810197F1F7FE0112
:1020B000E45BFF4F91838083DE01A25BBF4FFE0193
:1020C000E25BFF4F80819181019711969C938E93E3
:1020D000FE01E25BFF4F808191810097D1F64BC0FA
:1020E0008E01025B1F4FFE01E05BFF4F608171813B
:1020F000828193810E944100DC01CB01F801918330
:102100008083DE01A65BBF4FFE01E25BFF4F808153
:10211000918111969C938E93FE01E65BFF4F808127
:1021200091810197F1F7FE01E65BFF4F9183808378
:1021300022C08E01085A1F4FFE01E75AFF4F6081EF
:102140007181828193810E944100DC01CB01F80101
:102150008083DE01A75BBF4FFE01E85AFF4F8081FD
:102160008C93FE01E75BFF4F80818A95F1F7FE01BA
:10217000E75BFF4F8083A8E3B0E0E8E3F0E0808115
:10218000877F8C93FE01EB5BFF4F80E090E0A8EC33
:10219000B2E480839183A283B3838E010F5B1F4FD0
:1021A000FE01EB5BFF4F60817181828193812BEA9D
:1021B0003AEA4AEA50E40E941702DC01CB01F80136
:1021C00080839183A283B383FE01EF5BFF4F608125
:1021D00071818281938120E030E040E85FE30E94DA
:1021E0001D04882334F481E0FE01E05CFF4F80830E
:1021F0009DC0FE01EF5BFF4F608171818281938101
:1022000020E030E04FE753E40E94BD0318160CF0C5
:102210007EC0FE01EB5BFF4F608171818281938103
:1022200020E030E04AE754E40E941103DC01CB01D6
:102230008CAF9DAFAEAFBFAF6CAD7DAD8EAD9FAD82
:1022400020E030E04AE755E40E941702DC01CB01B0
:1022500088AF99AFAAAFBBAF68AD79AD8AAD9BAD82
:1022600020E030E040E85FE30E941D0488232CF466
:1022700081E090E09FAB8EAB3FC068AD79AD8AAD99
:102280009BAD20E03FEF4FE757E40E94BD031816D7
:102290004CF56CAD7DAD8EAD9FAD20E030E040E201
:1022A00051E40E941702DC01CB01BC01CD010E9468
:1022B0004100DC01CB019FAB8EAB0FC080E991E008
:1022C0009DAB8CAB8CA99DA90197F1F79DAB8CAB15
:1022D0008EA99FA901979FAB8EAB8EA99FA900974E
:1022E00069F72DC068AD79AD8AAD9BAD0E94410004
:1022F000DC01CB019FAB8EAB8EA99FA99BAB8AABB8
:102300008AA99BA90197F1F79BAB8AAB18C0FE0184
:10231000EF5BFF4F60817181828193810E94410058
:10232000DC01CB01FE01E05CFF4F8083FE01E05C3D
:10233000FF4F808189AB89A98A95F1F789ABABE31F
:10234000B0E0FE01EF59FF4F80818295807F8C9332
:10235000A8E3B0E0E8E3F0E0808188608C9380E05F
:1023600090E0A0E8BFE38DA79EA7AFA7B8AB6DA58F
:102370007EA58FA598A92BEA3AEA4AEA50E40E9482
:102380001702DC01CB0189A79AA7ABA7BCA769A557
:102390007AA58BA59CA520E030E040E85FE30E9491
:1023A0001D0488231CF481E088A791C069A57AA543
:1023B0008BA59CA520E030E04FE753E40E94BD03CD
:1023C00018160CF07BC06DA57EA58FA598A920E0FE
:1023D00030E04AE754E40E941103DC01CB018CA3F6
:1023E0009DA3AEA3BFA36CA17DA18EA19FA120E060
:1023F00030E04AE755E40E941702DC01CB0188A3D4
:1024000099A3AAA3BBA368A179A18AA19BA120E05B
:1024100030E040E85FE30E941D0488232CF481E053
:1024200090E09F8F8E8F3FC068A179A18AA19BA168
:1024300020E03FEF4FE757E40E94BD0318164CF52C
:102440006CA17DA18EA19FA120E030E040E251E48B
:102450000E941702DC01CB01BC01CD010E944100AA
:10246000DC01CB019F8F8E8F0FC080E991E09D8FA3
:102470008C8F8C8D9D8D0197F1F79D8F8C8F8E8D1C
:102480009F8D01979F8F8E8F8E8D9F8D009769F7FF
:1024900024C068A179A18AA19BA10E944100DC010E
:1024A000CB019F8F8E8F8E8D9F8D9B8F8A8F8A8D74
:1024B0009B8D0197F1F79B8F8A8F0FC069A57AA535
:1024C0008BA59CA50E944100DC01CB0188A788A5B3
:1024D000898F898D8A95F1F7898FA8E3B0E0E8E3C9
:1024E000F0E08081877F8C9380E090E0A8ECB2E4FC
:1024F0008D8B9E8BAF8BB88F6D897E898F89988DE0
:102500002BEA3AEA4AEA50E40E941702DC01CB01C6
:10251000898B9A8BAB8BBC8B69897A898B899C89D7
:1025200020E030E040E85FE30E941D0488231CF4B3
:1025300081E0888B91C069897A898B899C8920E0A8
:1025400030E04FE753E40E94BD0318160CF07BC047
:102550006D897E898F89988D20E030E04AE754E4C8
:102560000E941103DC01CB018C879D87AE87BF875A
:102570006C857D858E859F8520E030E04AE755E4B7
:102580000E941702DC01CB0188879987AA87BB8745
:10259000688579858A859B8520E030E040E85FE3A7
:1025A0000E941D0488232CF481E090E09F838E8399
:1025B0003FC0688579858A859B8520E03FEF4FE79E
:1025C00057E40E94BD0318164CF56C857D858E85F9
:1025D0009F8520E030E040E251E40E941702DC01D8
:1025E000CB01BC01CD010E944100DC01CB019F83E6
:1025F0008E830FC080E991E09D838C838C819D81C7
:102600000197F1F79D838C838E819F8101979F8332
:102610008E838E819F81009769F724C068857985B4
:102620008A859B850E944100DC01CB019F838E83BC
:102630008E819F819B838A838A819B810197F1F799
:102640009B838A830FC069897A898B899C890E94C0
:102650004100DC01CB01888B8889898389818A9537
:10266000F1F78983CF59DF4F0FB6F894DEBF0FBE65
:10267000CDBFCF91DF911F910F910895DF93CF933D
:1026800000D00F92CDB7DEB79B838A8319820EC02C
:102690008981282F30E08A819B81FC01E20FF31FA2
:1026A00080810E94640F89818F5F89838981282FAF
:1026B00030E08A819B81FC01E20FF31F8081882337
:1026C00039F70F900F900F90CF91DF910895DF931E
:1026D000CF93CDB7DEB78CE00E94800BCF91DF9116
:1026E0000895DF93CF93CDB7DEB781E00E94800BD2
:1026F000CF91DF910895DF93CF9300D000D0CDB775
:10270000DEB789836A838981282F30E03C832B835D
:102710008B819C81009731F02B813C8121303105E8
:1027200031F009C08A8180580E94800B04C08A81E0
:1027300080540E94800B0F900F900F900F90CF91BC
:10274000DF910895DF93CF93CDB7DEB780E063E0EC
:1027500041E00E94F206CF91DF910895DF93CF937D
:10276000CDB7DEB780E063E041E00E94D507CF91AE
:10277000DF910895DF93CF93CDB7DEB780E063E0BC
:1027800040E00E94D507CF91DF910895DF93CF936A
:10279000CDB7DEB780E063E00E94B808CF91DF914B
:1027A0000895DF93CF93CDB7DEB76C970FB6F8944B
:1027B000DEBF0FBECDBF0E94DA0A0E94A2130E94A4
:1027C000AB0A0E946F0E0E946E060E94D50680938F
:1027D0008400809184000E94640F80918400813382
:1027E000A1F40E94711380E060E00E947B130E94BC
:1027F000BA130E94C30A80E690E00E943E1381E073
:102800000E94520B10928400E0CF809184008233AA
:1028100009F088C00E94711380E060E00E947B1381
:1028200081E00E94210B0E94C30A89E690E00E9489
:102830003E130E94AE1380E090E0AAE7B4E4898FD3
:102840009A8FAB8FBC8F698D7A8D8B8D9C8D20E09C
:1028500030E04AE755E40E941702DC01CB018D8B82
:102860009E8BAF8BB88F6D897E898F89988D20E084
:1028700030E040E85FE30E941D0488232CF481E0EF
:1028800090E09C8B8B8B3FC06D897E898F89988D62
:1028900020E03FEF4FE757E40E94BD0318164CF5C8
:1028A000698D7A8D8B8D9C8D20E030E040E251E483
:1028B0000E941702DC01CB01BC01CD010E94410046
:1028C000DC01CB019C8B8B8B0FC080E991E09A8B54
:1028D000898B89899A890197F1F79A8B898B8B89E2
:1028E0009C8901979C8B8B8B8B899C89009769F7BE
:1028F00014C06D897E898F89988D0E944100DC010A
:10290000CB019C8B8B8B8B899C89988B8F878F8538
:1029100098890197F1F7988B8F870E94BA131092CC
:10292000840053CF80918400833309F04ECF0E94FE
:10293000711380E060E00E947B1381E00E94210B14
:102940000E94BA1383E790E00E943E130E94B70AE8
:1029500080E090E0AAE7B4E48B879C87AD87BE87D0
:102960006B857C858D859E8520E030E04AE755E4C7
:102970000E941702DC01CB018F839887A987BA8751
:102980006F81788589859A8520E030E040E85FE3B3
:102990000E941D0488232CF481E090E09E838D83A7
:1029A0003FC06F81788589859A8520E03FEF4FE7AA
:1029B00057E40E94BD0318164CF56B857C858D8508
:1029C0009E8520E030E040E251E40E941702DC01E5
:1029D000CB01BC01CD010E944100DC01CB019E83F3
:1029E0008D830FC080E991E09C838B838B819C81D8
:1029F0000197F1F79C838B838D819E8101979E8344
:102A00008D838D819E81009769F714C06F817885D1
:102A100089859A850E944100DC01CB019E838D83CC
:102A20008D819E819A83898389819A810197F1F7AB
:102A30009A8389830E94C30A10928400C6CE2F9283
:102A40003F924F925F926F927F928F929F92AF923E
:102A5000BF92CF92DF92EF92FF920F931F93CF938B
:102A6000DF93CDB7DEB7CA1BDB0B0FB6F894DEBF22
:102A70000FBECDBF09942A88398848885F846E8448
:102A80007D848C849B84AA84B984C884DF80EE8092
:102A9000FD800C811B81AA81B981CE0FD11D0FB69B
:102AA000F894DEBF0FBECDBFED010895F894FFCFBF
:102AB0004C454431204F4E0A0042555A5A45522047
:102AC0004F4E0052454C4159204F4E00000000002F
:062AD000000000000800F8
:00000001FF
